:020000020000FC
:080000000C942A000C9444004A
:1000540004E00EBF0FE50DBF0E94CF000E94DD003B
:100064000E9470000E9409010E94B5000E943201A2
:100074000E94220129F404E60E9415010E94DD0079
:100084000C9432000F931F932F930FB70F93EF939A
:10009400FF9300E008BB10916400F0E0E5E6212F37
:1000A4002295220F0BB30F70022B0BBBE10F00271D
:1000B400F01F008108BB1395153009F410E010936C
:1000C400640000916A00039500936A00FF91EF9128
:1000D4000F910FBF2F911F910F91189500E207B94F
:1000E400369A3699FECF05B1003C48F4003308F047
:1000F4000BC00091600003950093600005C000915F
:1001040060000A950093600011E217B9369A369997
:10011400FECF15B1103C18F4103338F00BC0109119
:10012400610013951093610005C0109161001A9548
:10013400109361000E949F0008950091600017E0F1
:100144000E94AE00009360000091610015E00E94DF
:10015400AE0000936100089500601AF0011711F4D5
:10016400025003950895FF27E0E60E94BE00FF2792
:10017400E2E60E94BE00089511910E94C800108119
:10018400E5E6E10F1081102B1083089501E01A9524
:100194001AF0000F0C94C90008950FEF07BB00EE8E
:1001A4000ABB0BEF01BB0FE005BF00EC0BBF78945B
:1001B40000E806B9089500E00093600002E00093AF
:1001C40061000F920F920E94F0000F910093620061
:1001D4000F91009363000E94090108950EB7F02F58
:1001E4000DB7E02F00E0048300916A000951093142
:1001F400E8F70130053038F00F9304810395048348
:100204000F910550B8F7039503950383089500E013
:1002140000936500009366000093670000936800F4
:10022400009369000895C79A05D0C79803D00A952A
:10023400D1F708950F9308E20A95F1F70F91089505
:100244000F931F930091600010916200011729F42D
:10025400009161001091630001171F910F9108959F
:100264000F931F932F9306E413E020E02A95F1F7F0
:100274001A95D9F70A95C1F72F911F910F910895F7
:00000001FF
