:020000020000FC
:1000000004E00EBF0FE50DBF0E94330044270E949D
:100010000A00FDCF0E942F005030E1F305E00E945E
:1000200038000E942F005030A9F344270AE00E94B4
:100030003800C89911E0410F11270AE00E943800EA
:10004000C89914E0410F11270AE00E943800C899AE
:1000500018E0410F48BB0AE00E943800D8CF55276E
:10006000C8995A95089500270ABB0FEF07BB08955A
:10007000C79A1FE11A95F1F70A95D9F7C79808951D
:00000001FF
