:020000020000FC
:0200000029C015
:020004003FC0FB
:020008005CC0DA
:1000540004E00EBF0FE50DBF0FEF07BB0ABB00E0C6
:1000640000936000009361000093620000936300BA
:10007400009364000FE005BF00EC0BBF7894FFCF42
:100084000F931F93FF93EF930FB70F93F0E0E0E606
:10009400008103951AE0E0FD16E0011709F400E081
:1000A4000083003009F004C0E395E43609F0F0CF92
:1000B4000F910FBFEF91FF911F910F9118950F931F
:1000C4001F930FB70F93FF93EF93DF93CF93F1E059
:1000D400ECE0D0E0C0E600E008BB10916400C10F82
:1000E4000881E00F04911BBB08BB1395143009F47D
:1000F40010E010936400CF91DF91EF91FF910F9185
:100104000FBF1F910F9118953F065B4F666D7D07DA
:020114007F6703
:00000001FF
